:02000000A42A30
:0E000600213083120313FD00FD0B07280800B4
:06001400000000000800DE
:10001A000F3083120313FC004730FD00FD0B132839
:0A002A00FC0B132800000000080082
:1000340083120313D71B2028861321288617571BE6
:100044002528061326280617D71A2A2886122B28AD
:100054008616571A2F280612302806163B183428FD
:1000640006153528061186150A208611D7193C284D
:1000740086133D2886175719412806134228061768
:10008400D718462886124728861657184B28061272
:100094004C2806163B1850280615512806118615BB
:1000A4000A2086113B1C58280D20592803200800DB
:1000B40083120313FB01FA01F9018030F800F10CFB
:1000C400F00C031C6E287408F90775080318750FE3
:1000D400FA070318FB0A0310F01F76287408FA07BE
:1000E40075080318750FFB07FB0CFA0CF90CF80CD8
:1000F400031C61287B08F3007A08F2007908F100F8
:060104007808F00008007D
:10010A00831203133B105608D7001A203B14080029
:10011A000E3083120313FD00FD0B91280000080026
:10012A0083120313F8010830FC00700DF80D7408EF
:10013A00F8020318A228F8070310F00DFC0B9A28FE
:02014A000800AB
:10014C0083120313F801F9011030FC00710DF80D46
:10015C00F90D7408F8027508031C750FF9020318E1
:10016C00BE287408F80775080318750FF9070310F3
:0A017C00F00DF10DFC0BAC2808009B
:0E0186008312031342088A0041088200080019
:1001940083120313D401053054020318D8285408D9
:1001A4005307840020308000D40ACD285408530714
:1001B40084008001D40354085307D5000A30F400A6
:1001C400F5015108F0005208F100A6207808F0006B
:1001D4007908F1003030F007550884007008800079
:1001E4000A30F400F5015108F0005208F100A6208D
:1001F4007008D1007108D20000307106031D042973
:1002040000307006031D07290929D403DD280800DE
:100214001C29803083120313D1002F29C030D10050
:100224002F299430D1002F29D430D1002F298030A8
:10023400D1002F29831203135108013A03190B2902
:100244005108023A031910295108033A03191329D2
:100254005108043A0319162919295203F0005108C8
:10026400F0077008D1007008D7001A203B10D401A1
:1002740054085307840000080319482954085307F5
:1002840084000008D6008520D40A3A293B140800CB
:1002940083120313D301033053020318582953085C
:1002A4005207840020308000D30A4D295308520796
:1002B40084008001D30353085207D4000A30F400A9
:1002C4005108F00095207808F0003030F007540809
:1002D4008400700880000A30F4005108F000952072
:1002E4007008D1007008003A031D79297B29D303D3
:0402F4005D29080078
:1002F800831603131208013EF000F1010318F10AF6
:1003080083125108F400F5015A200630F2007008F3
:10031800F4007108F500720803199729F50CF40C1C
:10032800F513FF3E90290430F1007408F0007108BD
:100338000319A229F00D7010FF3E9C29303070057A
:10034800F3007408F0007508F100F10CF00CF113DB
:10035800F10CF00CF113700895000F309705730835
:0403680097040800EE
:10036C00831203139F01C0309F043909F0007008F9
:10037C0083169F051F179F1783125108F000F00D6D
:10038C007010F00D7010F00D701070089F041F1499
:10039C008D201F151F1DD4290000D0291F101E08E9
:1003AC00F100F00183161E08F0040030F10408007F
:1003BC00831603130711831212150C3097040800CF
:1003CC008316031386110611061286120613861362
:1003DC0083128611061186130613861206120D203F
:1003EC000D200D208616061686150A2086110D2066
:1003FC0086150A2086110D2086150A2086110D20DF
:10040C00061286150A2086110D2086150A208611E3
:10041C008612861786150A2086110D20861306165D
:10042C0086150A208611061286150A2086110D20C3
:10043C0086150A208611061686150A2086110D20AF
:10044C00061286150A2086118617061786160616BA
:0C045C0086150A2086110D203B140800B4
:1004680083120313D101B62170088312BF007108EB
:10047800C0007008F2007108F300F30CF20CF313DB
:10048800F30CF20CF3137208BA007008D10071086B
:10049800D2004730D300CA203A08D1004330D200F6
:1004A8004A210130D1000130D2002D30D3000A2179
:1004B8000130D1000C30D2004730D3000A2102307D
:1004C800D1000130D2002030D3000A210230D100FF
:1004D8000D30D2004330D3000A213A08D1007C21E4
:1004E8000230FB000430FC00BA30FD00FD0B7A2A14
:0C04F800FC0B7A2AFB0B7A2A000008009B
:10050400FF3083120313BC00FF30BD00FF30BE0078
:10051400FF309F01C0309F043909F0007008831632
:0C0524009F051F179F1783121F1408006B
:10053000C3208A110A128000840AC10A0319C20A60
:08054000F003031D982A0800D6
:10054800E02282220E3083169F000514E621013036
:10055800D7001A200C30D7001A20831607117C30D8
:1005680092008312921412143A08D1007C21DE21E1
:060578003422BC2ABE2A59
:1005C000203084001B3083120313F000C430C100BC
:0805D0000230C200982208006D
:1005880044347534743479342034433479346334DE
:0A0598006C3465343A34203400342A
:1005A2004134443443342034563441344C34553489
:0805B20045343A3420340034D2
:0205BA000F34FC
:0205BC00003409
:02400E004A2F37
:00000001FF
