:02000000C92D08
:06000600000000000800EC
:0E000C00213083120313FD00FD0B0A280800AB
:10001A000F3083120313FC004730FD00FD0B132839
:0A002A00FC0B132800000000080082
:10003400FB14FB1F2428FF30F300F200F100F00052
:08004400FA0DF20CFF30080078
:10004C0083160313A81B2D28831286112F288312C5
:10005C0086158316281B3528831206113728831220
:10006C0006158316A81A3D28831286103F28831282
:10007C0086148316281A45288312061047288312E3
:10008C00061468184B2806164C28061286160320F0
:10009C0086128316A81955288312861157288312A5
:1000AC008615831628195D28831206115F28831282
:1000BC0006158316A81865288312861067288312E4
:1000CC008614831628186D28831206106F28831245
:1000DC000614681873280616742806128616032050
:0E00EC008612681C7B280D207C280620080048
:0E00FA00F201F101F001F801F30100300800FD
:08010800FA1FF2130030080099
:100110007B15FB1F92280130F300F201F101F00181
:08012000FA0DF20CFF3008009B
:1001280083120313681083162608A8002620681473
:020138000800BD
:10013A00A0017208031DB2287108F2007008F100CC
:10014A00F001A0157208031DB2287108F200F1012E
:10015A00A011201672080319C0282008F302031DF3
:10016A00031CC4280310F21BC828F00DF10DF20D70
:10017A00F30BB828C4280130FC007D20CB280230BC
:0E018A00FC008820CB280430FC0084200800F4
:10019800710DF80DF90D7408F8027508031C750F38
:1001A800F902F00DF10D0F30FC00710DF80DF90D8D
:1001B8007408701CE528F8027508031C750FF9020D
:1001C800EA28F80775080318750FF907F00DF10DFF
:1001D800FC0BD9287018F6287408F8077508031856
:0801E800750FF9070000080083
:1001F0000E3083120313FD00FD0BFC2800000800E5
:10020000831603132608F2007208F100F20A270889
:10021000F000A70A700884000008F000710884004C
:100220007008800071088400000803191829042947
:060230002608F0000800A2
:1002360083120313FA017308031D7A147708031D4A
:10024600FA147A0803196729033A031932297A1826
:100256002F29F61F65296329F21F6329652972086C
:100266008039FA00F21376088039F6137A060319F4
:1002760040297A0803196329652977087302031947
:100286004729031C5B295F297608720203194E2948
:10029600031C5B295F297508710203195529031C84
:1002A6005B295F29740870020319672903185F29FF
:1002B600FA08031965296329FA08031963296529C8
:1002C60003140800031008000314031508000800AF
:1002D60083120313FD01F801700803190034740634
:1002E600FA00FA1BFD09FB01F41F7B29F409F40A45
:1002F600F01F7F29F009F00A70087404FA00FA1B4F
:10030600A3297408F802F00D700DF80D7408F807AB
:10031600F00D0630FC00700DF80D74087018F80228
:10032600701CF807F00DFC0B8E29701CF8077B1863
:10033600B129FD1F0034F009F00AF809F80A003463
:10034600F41FAE29F01BAB297008F800F0019C29B8
:10035600F001F00A0034F009FB0A8429F80A74084F
:100366007802031D9C29F801F00AF01F9C29FF342E
:0203760008007D
:0E0378008312031367088A00660882000800DB
:1003860083120313FB017308031D770803191A2A46
:1003960072087606FA007708F3077E30031CD72921
:1003A600F30203181D2ADA29F302031C202A720815
:1003B600F8007108FC007008FD00F817F617031026
:1003C600F201F101F0011830A0007D1CF429740837
:1003D600F00775080318750FF10776080318760FEE
:1003E600F207F20CF10CF00CF80CFC0CFD0C0310EF
:1003F600A00BE829F21B042AF80DF00DF10DF20D01
:10040600F3037B1B701C162AF81F162AF00A031921
:10041600F10A0319F20A031D162AF20CF10CF00C6C
:10042600F30A03191D2AFA1FF2130030222A01309B
:100436007D20222A02301A20222A04308820000039
:020446000800AC
:10044800831203137408003A031D332A7508003A0F
:10045800031D332AFF30F0007F30F1008C2A83120D
:100468000313FD01F901F801710870040319003440
:1004780071087506FA00FA1BFD09FB01F51F492AE8
:10048800F409F509F40A0319F50AF11F502AF009CD
:10049800F109F00A0319F10A71087504FA00FA1B48
:1004A800652ACC207B18782AFD1F0034F009F10951
:1004B800F00A0319F10AF809F909F80A0319F90AFF
:1004C8000034F51F742AF11B702A7108F9007008AE
:1004D800F800F101F001582AF101F001F00A0034A6
:1004E800F109F009FB0A552AF80A0319F90A7408F0
:1004F8007802031D582A75087902031D582AF90144
:10050800F801F00A0319F10AF11F582A0000FF3414
:020518000800D9
:10051A0083160313A401A501831269088316A00098
:10052A0083126A088316A10083126B088316A2003D
:10053A0083126C088316A3002308FF3A031DAF2A0F
:10054A002208FF3A031DAF2A2108FF3A031DAF2AEA
:10055A002008FF3A031DBB2A83126D088316A600E2
:10056A004C30A70000210330F000BB2C013083126D
:10057A00EE008316A21FCD2A80302206F0007008F2
:10058A00A2008312EE0A6D0884002D308000ED0A65
:10059A000030F00083162306031DDD2A70082206A8
:1005AA00031DDD2A70082106031DDD2A2008003AF2
:1005BA00031DE82A83126D088316A6005530A7008A
:1005CA000021F001BB2C2308FF3A031DF62A22085A
:1005DA00003A031DF62A2108003A031DF62A2008CC
:1005EA00003A031D032B83126D088316A6005130AF
:1005FA00A700002183126E08F000BB2C0030F40023
:10060A000030F5000030F6007F30F700831620082E
:10061A00F0002108F1002208F2002308F3001B2150
:10062A00013003180030F00070080319392B8316C3
:10063A002008F0002108F1002208F2002308F30044
:10064A000030F4000030F5002030F6008230F70068
:10065A00C32170088316A0007108A1007208A200C5
:10066A007308A300A503032B83160030F40000309F
:10067A00F5002030F6008230F7002008F00021084B
:10068A00F1002208F2002308F3001B210130031CA9
:10069A000030F000700803196F2B83162008F00051
:1006AA002108F1002208F2002308F300CD30F400FB
:1006BA00CC30F5004C30F6007B30F700C3217008CF
:1006CA008316A0007108A1007208A2007308A30093
:1006DA00A50A392B8316FF302005F800FF302105C3
:1006EA00F9007F302205FA0000302305FB00780864
:1006FA00F4007908F5007A08F6007B08F700F40D93
:10070A00F50DF60DF70D741000302005F0000030DD
:10071A002105F10000302205F200FF302305F30025
:10072A007008A0007108A1007208A2007308A30053
:10073A0074082004F00075082104F10076082204E8
:10074A00F20077082304F3007008A0007108A100E2
:10075A007208A2007308A3007F302302F000700819
:10076A008312EF0001308316A3007008F4002008FA
:10077A00F0002108F1002208F2002308F3007408AF
:10078A000319CE2BF00DF10DF20DF30D7010FF3E93
:10079A00C52B7008A0007108A1007208A200730896
:1007AA00A3002308303EF00083126D08840070080D
:1007BA008000ED0A803083162506F0008030013A69
:1007CA007002031CF12B8030063AF00080302506B7
:1007DA007002031CF12BFA2B83126D0884002E3051
:1007EA008000ED0A01308316A40006308312EF0060
:1007FA006F08003A03195F2C8316A3012008F00042
:10080A002108F1002208F2002308F300F00DF10D8F
:10081A00F20DF30D7010F00DF10DF20DF30D7010D5
:10082A002008F00721080318210FF10722080318EE
:10083A00220FF20723080318230FF3077008A000FA
:10084A007108A1007208A2007308A3002008F00032
:10085A002108F1002208F2002308F300F00DF10D3F
:10086A00F20DF30D70107008A0007108A100720853
:10087A00A2007308A3002308303EF00083126D081B
:10088A00840070088000ED0A83162408003A031DCC
:10089A005C2CA5032508003A031D5C2C83126D0805
:1008AA0084002E308000ED0A01308316A4008312E2
:1008BA00EF03FD2BFF306D0784000008303A031D5B
:1008CA00682CED035F2CFF306D07840000082E3A78
:1008DA00031D702CED0383162508003A0319B62C64
:1008EA0083126D08840065308000ED0A803083161B
:1008FA002506F0008030003A700203188E2C83120D
:10090A006D0884002D308000ED0A83162508003C0E
:10091A00A50025088312EF008030093AF0008030E4
:10092A008316250670020318A72C0A30F4008312D6
:10093A006F08F0006B213030F0076D0884007008F2
:10094A008000ED0A83120A30F4006F08F0006B2170
:10095A007808F0003030F0076D08840070088000D5
:0E096A00ED0A83126D0884008001F001080080
:1009780083120313FB01FA01F9018030F800F10C2E
:10098800F00C031CD02C7408F90775080318750FB0
:10099800FA070318FB0A0310F01FD82C7408FA078B
:1009A80075080318750FFB07FB0CFA0CF90CF80C0B
:1009B800031CC32C7B08F3007A08F2007908F100C5
:0609C8007808F0000800B1
:1009CE00831203139F01C0309F045009F00070087A
:1009DE0083169F051F179F1783126908F000F00DED
:1009EE007010F00D7010F00D701070089F041F1431
:1009FE00F8201F151F1D052D0000012D1F101E08AC
:100A0E00F100F00183161E08F0040030F104080016
:100A1E00212D803083120313E900342DC030E900FC
:100A2E00342D9430E900342DD430E900342D80304B
:100A3E00E900342D831203136908013A0319102DAE
:100A4E006908023A0319152D6908033A0319182D7E
:100A5E006908043A03191B2D1E2D6A03F00069085C
:100A6E00F0077008E90070088316A80026206810A9
:100A7E00EC016C086B078400000803194F2D6C08FD
:100A8E006B07840000088316A6009420EC0A402D04
:040A9E0068140800D0
:100AA200831603138612061206108610061186118B
:100AB20083128612061286110611861006100D2068
:100AC2000D200D20861406148616032086120D2092
:100AD2008616032086120D208616032086120D200C
:100AE20006108616032086120D2086160320861213
:100AF200861086158616032086120D20861106148E
:100B020086160320861206108616032086120D20F2
:100B120086160320861206148616032086120D20DE
:100B220006108616032086128615061586140614EC
:0C0B32008616032086120D2068140800AF
:100B3E00831203137008F8007108F000F101F2013E
:100B4E00F301FB01FC019630F300FA01F01FB52D05
:100B5E00F809F009F80A0319F00AFA177008F100FB
:0C0B6E007808F000F801F2019D2008005A
:100B7A00BC218A110A128000840AE60A0319E70ACC
:080B8A00F003031DBD2D08005E
:100B9200FA2601308316031385008E309F008601EA
:100BA20083128601831687018312870151250C3037
:100BB2008316A800262001308316A80026200130C3
:100BC200E9000130EA003230EB000F250B30FB0068
:100BD2002630FC005D30FD00FD0BED2DFC0BED2DF4
:100BE200FB0BED2D0000000001308316A80026202B
:100BF200E901E72470088312C2007108C3000530BE
:100C0200F4000030F500BC24FF30F4000330F5009E
:100C120024229F257008C4007108C5007208C6000E
:100C22007308C7000030F4000030F5003030F600E1
:100C32008230F700C3217008C8007108C900720829
:100C4200CA007308CB007008E9007108EA00720854
:100C5200EB007308EC005730ED008D220130831257
:100C62000313E9000130EA002130EB000F250230C6
:100C7200E9000530EA005730EB000F254808F40080
:100C82004908F5004A08F6004B08F7009A30F000D0
:100C92009930F1001930F2008030F3001B2101304D
:100CA20003180030F000700803195B2E0617861334
:100CB2000710AA2E4808F4004908F5004A08F60071
:100CC2004B08F7009A30F0009930F1001930F20029
:100CD2007F30F3001B21013003180030F000700850
:100CE20003198F2E4808F4004908F5004A08F60057
:100CF2004B08F7009A30F0009930F1001930F200F9
:100D02008030F3001B210130031C0030F00070081A
:100D120003198F2E061386170710AA2E4808F4000F
:100D22004908F5004A08F6004B08F7009A30F0002F
:100D32009930F1001930F2007F30F3001B210130AD
:100D4200031C0030F00070080319AA2E0613861344
:100D520007140B30FB002630FC005D30FD00FD0B5C
:100D6200B02EFC0BB02EFB0BB02E000000000130A9
:0A0D72008316A8002620F92DBD2EDF
:100DF40021308400363083120313F000C330E60040
:080E04000630E700BD250800DF
:100D860020344234613474346134723479346134D9
:100D9600203456346F346C34743461346A34FD3420
:020DA600003417
:100DA8002034203442344134543441345234593498
:100DB800413420344F344C344334453452340034B5
:040DC80000340034BF
:080DCC0000340034003400344F
:080DD400003400340034003447
:080DDC004E3461344E34003442
:020DE4000F34CA
:080DE60049344E344634003458
:040DEE003034003469
:02400E004A2F37
:00000001FF
