:02000000182FB7
:0E000600213083120313FD00FD0B07280800B4
:06001400000000000800DE
:10001A000F3083120313FC004730FD00FD0B132839
:0A002A00FC0B132800000000080082
:100034007B15FB1F24280130F300F201F101F001CC
:08004400FA0DF20CFF30080078
:10004C0083120313EC1B2C2886132D2886176C1B8C
:10005C003128061332280617EC1A36288612372850
:10006C0086166C1A3B2806123C28061641184028A6
:10007C0006154128061186150A208611EC19482808
:10008C008613492886176C194D2806134E28061717
:10009C00EC1852288612532886166C18572806120C
:1000AC005828061641185C2806155D280611861579
:1000BC000A208611411C64280D20652803200800A5
:0800CC00FA1FF21300300800D6
:0E00D400F201F101F001F801F3010030080023
:1000E200FB14FB1F7B28FF30F300F200F100F0004D
:0800F200FA0DF20CFF300800CA
:1000FA008312031341106A08EC00262041140800F9
:10010A000E3083120313FD00FD0B8928000008003E
:10011A0083120313F8010830FC00700DF80D7408FF
:10012A00F80203189A28F8070310F00DFC0B92281E
:02013A000800BB
:06013C00FB15FF30080076
:1001420083120313FB01FA01F9018030F800F10C6C
:10015200F00C031CB5287408F90775080318750F0D
:10016200FA070318FB0A0310F01FBD287408FA07E8
:1001720075080318750FFB07FB0CFA0CF90CF80C49
:10018200031CA8287B08F3007A08F2007908F10022
:060192007808F0000800EF
:1001980083120313FD01F801700803190034740673
:1001A800FA00FA1BFD09FB01F41FDC28F409F40A24
:1001B800F01FE028F009F00A70087404FA00FA1B2E
:1001C80004297408F802F00D700DF80D7408F8078A
:1001D800F00D0630FC00700DF80D74087018F80268
:1001E800701CF807F00DFC0BEF28701CF8077B1843
:1001F8001229FD1F0034F009F00AF809F80A003442
:10020800F41F0F29F01B0C297008F800F001FD28D5
:10021800F001F00A0034F009FB0AE528F80A74082E
:100228007802031DFD28F801F00AF01FFD28FF34AD
:020238000800BC
:10023A0083120313FA017308031D7A147708031D46
:10024A00FA147A0803196929033A031934297A181E
:10025A003129F61F67296529F21F6529672972085E
:10026A008039FA00F21376088039F6137A060319F0
:10027A0042297A080319652967297708730203193D
:10028A004929031C5D29612976087202031950293C
:10029A00031C5D2961297508710203195729031C7A
:1002AA005D296129740870020319692903186129F3
:1002BA00FA08031967296529FA08031965296729BC
:1002CA0003140800031008000314031508000800AB
:1002DA00831203136A08F2007208F100F20A6B082B
:1002EA00F000EB0A700884000008F000710884002E
:1002FA007008800071088400000803198529712993
:06030A006A08F000080083
:10031000A0017208031D9D297108F2007008F10008
:10032000F001A0157208031D9D297108F200F1016A
:10033000A011201672080319AB292008F302031D2F
:10034000031CAF290310F21BB329F00DF10DF20DC0
:10035000F30BA329AF290130FC006A20B629023033
:0E036000FC001A20B6290430FC0066200800BC
:10036E0083120313FB017308031D770803190E2A6A
:10037E0072087606FA007708F3077E30031CCB2945
:10038E00F3020318112ACE29F302031C142A720851
:10039E00F8007108FC007008FD00F817F61703103E
:1003AE00F201F101F0011830A0007D1CE82974085B
:1003BE00F00775080318750FF10776080318760F06
:1003CE00F207F20CF10CF00CF80CFC0CFD0C031007
:1003DE00A00BDC29F21BF829F80DF00DF10DF20D32
:1003EE00F3037B1B701C0A2AF81F0A2AF00A031952
:1003FE00F10A0319F20A031D0A2AF20CF10CF00C91
:10040E00F30A0319112AFA1FF2130030162A0130CB
:10041E006A20162A02307120162A04301A20000093
:02042E000800C4
:100430007B14FB1F232AF201FA1FFF30F200F100A8
:0A044000F000FA0DF20CFF30080086
:10044A00831203137408003A031D402A7508003A00
:10045A00031D402A7608003A031D402A7708003A0D
:10046A00031D402AFF30F000FF30F1007F30F20018
:10047A00FF30F300DB2A8312031377080319CF2A0C
:10048A0073080319D22A720876068039FA00F2171D
:10049A00F617A0017208F8007108FC007008FD0048
:1004AA007408FD027508031C750FFC027608031C0C
:1004BA00760FF802F801FC01FD01031C6B2A0310F8
:1004CA00F20CF10CF00CF80C0130A0007708F302E2
:1004DA00031C752A7E302007F3070318D52A7A2AC7
:1004EA007E302007F307031CD82A1830FA07FD0DBF
:1004FA00FC0DF80DF00DF10DF20DA00D7408F002CF
:10050A007508031C750FF1027608031C760FF202B8
:10051A00760DA004201C932A7D149E2A7408F007E5
:10052A0075080318750FF10776080318760AF2079B
:10053A007D10FA031F307A05031D7C2A7B1B7D1C64
:10054A00C52A0310F00DF10DF20DA00D7408F0028A
:10055A007508031C750FF1027608031C760FF20268
:10056A00760D20040139FD070318FC0A0319F80A5D
:10057A00031DC52AF80CFC0CFD0CF30A0319D52A35
:10058A00FA1FF8137808F2007C08F1007D08F000E1
:10059A000030DA2A01309E20DA2A02306A20DA2A6A
:0E05AA0004307120DA2A08301A200000080000
:1005B800831603131208013EF000F1010318F10A33
:1005C80083125D08F400F501A1200630F2007008DE
:1005D800F4007108F50072080319F72AF50CF40CF9
:1005E800F513FF3EF02A0430F1007408F00071089A
:1005F8000319022BF00D7010FF3EFC2A30307005F5
:10060800F3007408F0007508F100F10CF00CF11318
:10061800F10CF00CF113700895000F309705730872
:04062800970408002B
:10062C0083120313E801E9015D08E4005E08E500AC
:10063C005F08E6006008E7006708FF3A031D302BEF
:10064C006608FF3A031D302B6508FF3A031D302B5B
:10065C006408FF3A031D3A2B6108EA002130EB00D5
:10066C006D210330F000132D0130E200E61F492B01
:10067C0080306606F0007008E600E20A610884002B
:10068C002D308000E10A0030F0006706031D582B66
:10069C0070086606031D582B70086506031D582B41
:1006AC006408003A031D612B6108EA002530EB0059
:1006BC006D21F001132D6708FF3A031D6F2B66089F
:1006CC00003A031D6F2B6508003A031D6F2B64085D
:1006DC00003A031D792B6108EA002730EB006D21ED
:1006EC006208F000132D0030F4000030F5000030EB
:1006FC00F6007F30F7006408F0006508F10066082A
:10070C00F2006708F3001D21013003180030F000DF
:10071C0070080319AC2B6408F0006508F10066083A
:10072C00F2006708F3000030F4000030F5002030D0
:10073C00F6008230F700B7217008E4007108E5007C
:10074C007208E6007308E700E903792B0030F40027
:10075C000030F5002030F6008230F7006408F0001D
:10076C006508F1006608F2006708F3001D210130EE
:10077C00031C0030F00070080319DF2B6408F00034
:10078C006508F1006608F2006708F300CD30F4004C
:10079C00CC30F5004C30F6007B30F700B7217008F8
:1007AC00E4007108E5007208E6007308E700E90A46
:1007BC00AC2BFF306405F800FF306505F9007F3085
:1007CC006605FA0000306705FB007808F40079082C
:1007DC00F5007A08F6007B08F700F40DF50DF60D20
:1007EC00F70D741000306405F00000306505F10061
:1007FC0000306605F200FF306705F3007008E40076
:10080C007108E5007208E6007308E70074086404D8
:10081C00F00075086504F10076086604F2007708AC
:10082C006704F3007008E4007108E5007208E60044
:10083C007308E7007F306702F0007008E3000130B6
:10084C00E7007008F4006408F0006508F100660821
:10085C00F2006708F300740803193B2CF00DF10D3E
:10086C00F20DF30D7010FF3E322C7008E40071088D
:10087C00E5007208E6007308E7006708303EF000F8
:10088C006108840070088000E10A80306906F0007D
:10089C008030013A7002031C5C2C8030063AF00068
:1008AC00803069067002031C5C2C632C6108840088
:1008BC002E308000E10A0130E8000630E3006308C6
:1008CC00003A0319C12CE7016408F0006508F10037
:1008DC006608F2006708F300F00DF10DF20DF30D50
:1008EC007010F00DF10DF20DF30D70106408F0079F
:1008FC0065080318650FF10766080318660FF20701
:10090C0067080318670FF3077008E4007108E50027
:10091C007208E6007308E7006408F0006508F1004F
:10092C006608F2006708F300F00DF10DF20DF30DFF
:10093C0070107008E4007108E5007208E600730896
:10094C00E7006708303EF000610884007008800002
:10095C00E10A6808003A031DBF2CE9036908003A54
:10096C00031DBF2C610884002E308000E10A013089
:10097C00E800E303652CFF30610784000008303A7F
:10098C00031DCA2CE103C12CFF3061078400000851
:10099C002E3A031DD22CE1036908003A03190F2DDE
:1009AC006108840065308000E10A80306906F0003F
:1009BC008030003A70020318EB2C610884002D3053
:1009CC008000E10A6908003CE9006908E300803016
:1009DC00093AF0008030690670020318012D0A30C4
:1009EC00F4006308F000CC203030F007610884007C
:1009FC0070088000E10A0A30F4006308F000CC2093
:100A0C007808F0003030F00761088400700880002E
:0C0A1C00E10A610884008001F00108007C
:100A280083120313FB01FC01FA0173080319412D1A
:100A3800FA13F2178630F302F31B252D0319252D1F
:100A4800432DF309F30A08307302031C322DF30017
:100A5800F20DF2017308031D0310392D73080319F1
:100A6800392D0310F20CF30B352D7B1B721C412D15
:100A7800031C412DF20A0319482DF1014B2D7B145B
:100A8800FB1F4E2DF1014E2D0130FC00502D003082
:100A9800FC00502DFF30FC00FC080319542D1822CF
:060AA8007208F0000800D6
:100AAE00692D803083120313DD007C2DC030DD00F4
:100ABE007C2D9430DD007C2DD430DD007C2D8030FB
:100ACE00DD007C2D831203135D08013A0319582DA6
:100ADE005D08023A03195D2D5D08033A0319602D76
:100AEE005D08043A0319632D662D5E03F0005D0860
:100AFE00F0077008DD007008EC0026204110E001C0
:100B0E0060085F07840000080319952D60085F07D1
:100B1E0084000008EA007D20E00A872D41140800B9
:0E0B2E00831203133D088A003C088200080071
:100B3C00831203139F01C0309F042B09F00070082F
:100B4C0083169F051F179F1783125D08F000F00D89
:100B5C007010F00D7010F00D701070089F041F14C1
:100B6C0085201F151F1DBC2D0000B82D1F101E0841
:100B7C00F100F00183161E08F0040030F1040800A7
:100B8C0083120313DF0103305F020318D42D5F08B7
:100B9C005E07840020308000DF0AC92D5F085E07E5
:100BAC0084008001DF035F085E07E0000A30F40078
:100BBC005D08F0008D207808F0003030F0076008F8
:100BCC008400700880000A30F4005D08F0008D206D
:100BDC007008DD007008003A031DF52DF72DDF03BA
:040BEC00D92D0800F7
:100BF000831203137008F8007108F000F101F2018C
:100C0000F301FB01FC019630F300FA017008F100DA
:0C0C10007808F000F801F20188210800CB
:100C1C00831603130711831212150C309704080066
:100C2C0083160313861106110612861206138613F9
:100C3C0083128611061186130613861206120D20D6
:100C4C000D200D208616061686150A2086110D20FD
:100C5C0086150A2086110D2086150A2086110D2076
:100C6C00061286150A2086110D2086150A2086117B
:100C7C008612861786150A2086110D2086130616F5
:100C8C0086150A208611061286150A2086110D205B
:100C9C0086150A208611061686150A2086110D2047
:100CAC00061286150A208611861706178616061652
:0C0CBC0086150A2086110D204114080046
:100CC80083120313DD019E2570088312BA00710890
:100CD800BB00F8250030F4000030F5004030F60085
:100CE8007F30F700B7217008C2007108C30072088E
:100CF800C4007308C5000030F4000030F50000306F
:100D0800F6008930F70025227008C2007108C30078
:100D18007208C4007308C5000030F4000030F50004
:100D28004830F6008530F700B7217008D9007108FF
:100D3800DA007208DB007308DC005908C2005A08A0
:100D4800C3005B08C4005C08C5005908F0005A08D5
:100D5800F1005B08F2005C08F3009A30F400993067
:100D6800F5005930F6007F30F700B72114257008D8
:100D7800AC005908DD005A08DE005B08DF005C089B
:100D8800E0004630E10016232C08DD005530DE0077
:100D9800C6250130DD000130DE004630DF00572572
:100DA8004330EA007D200230DD000130DE002D30C6
:100DB800DF0057250230DD000D30DE005530DF0042
:100DC80057252C08DD00DC220230FB000430FC0033
:100DD800BA30FD00FD0BEE2EFC0BEE2EFB0BEE2EBB
:040DE80000000800FF
:100DEC00FF3083120313BE00FF30BF00FF30C00082
:100DFC00FF309F01C0309F042B09F0007008831650
:0C0E0C009F051F179F1783121F1408007A
:100E180097258A110A128000840ABC0A0319BD0AA0
:080E2800F003031D0C2F08006C
:100E30005227F626053083169F000514162601302A
:100E4000EC0026200C30EC002620831607117C30A5
:100E500092008312921412142C08DD00DC220E265C
:060E60006426302F322F42
:100EA40021308400193083120313F0003830BC0061
:080EB4000730BD000C27080007
:080E70004E3461344E340034AD
:040E780030340034DE
:080E7C0049344E3446340034C1
:020E84000F3429
:020E8600003436
:100E880044347534743479342034433479346334D5
:0A0E98006C3465343A342034003421
:02400E004A2F37
:00000001FF
