:02000000832853
:1000060083120313FB01FA01F9018030F800F10CA9
:10001600F00C031C17287408F90775080318750FE8
:10002600FA070318FB0A0310F01F1F287408FA07C3
:1000360075080318750FFB07FB0CFA0CF90CF80C86
:10004600031C0A287B08F3007A08F2007908F100FD
:060056007808F00008002C
:0E005C008312031322088A0021088200080084
:10006A00831603130711831212150C309704080024
:10007A002E208A110A128000840AA10A0319A20AF0
:08008A00F003031D3D280800EE
:10009200831603131208013EF000F1010318F10A5E
:1000A20083122308F400F50103200630F2007008E1
:1000B200F4007108F500720803196428F50CF40CB9
:1000C200F513FF3E5D280430F1007408F00071085A
:1000D20003196F28F00D7010FF3E6928303070054B
:1000E200F3007408F0007508F100F10CF00CF11344
:1000F200F10CF00CF113700895000F30970573089E
:040102009704080056
:1001060083120313A00183160614861407117C308C
:1001160092008312921412142008A300492035205D
:100126000618A328A00A2008A30049208230FC0054
:10013600DD30FD00FD0B9D28FC0B9D280000000016
:100146008618B328A0032008A30049208230FC00AB
:10015600DD30FD00FD0BAD28FC0BAD2800000000D6
:02016600B328BC
:02400E004A2F37
:00000001FF
