:02000000A6292F
:06000600000000000800EC
:0E000C00213083120313FD00FD0B0A280800AB
:10001A000F3083120313FC004730FD00FD0B132839
:0A002A00FC0B132800000000080082
:1000340083120313E31B2028861221288616631BD0
:100044002528061226280616E31A2A2886112B28A4
:100054008615631A2F280611302806155C183428D3
:10006400061435280610861403208610E3193C284C
:1000740086123D2886166319412806124228061660
:10008400E318462886114728861563184B2806115D
:100094004C2806155C18502806145128061086149E
:1000A400032086105C1C58280D20592806200800BF
:0E00B4008312031349088A00480882000800DE
:1000C200831203135C106208E3001A205C14080018
:1000D20083120313F801F9011030FC00710DF80DC1
:1000E200F90D7408F8027508031C750FF90203185C
:1000F20081287408F80775080318750FF9070310AB
:0A010200F00DF10DFC0B6F28080052
:10010C000E3083120313FD00FD0B8A28000008003B
:10011C00831203139F01C0309F043809F00070084C
:10012C0083169F051F179F1783125D08F000F00DB3
:10013C007010F00D7010F00D701070089F041F14EB
:10014C0086201F151F1DAC280000A8281F101E0894
:10015C00F100F00183161E08F0040030F1040800D1
:10016C0083120313E001053060020318C4286008F1
:10017C005F07840020308000E00AB92860085F0720
:10018C0084008001E00360085F07E1000A30F4009E
:10019C00F5015D08F0005E08F10069207808F000B8
:1001AC007908F1003030F007610884007008800095
:1001BC000A30F400F5015D08F0005E08F1006920DA
:1001CC007008DD007108DE0000307106031DF02898
:1001DC0000307006031DF328F528E003C928080039
:1001EC000829803083120313DD001B29C030DD0089
:1001FC001B299430DD001B29D430DD001B298030F5
:10020C00DD001B29831203135D08013A0319F7283B
:10021C005D08023A0319FC285D08033A0319FF280C
:10022C005D08043A0319022905295E03F0005D08F4
:10023C00F0077008DD007008E3001A205C10E00184
:10024C0060085F07840000080319342960085F0701
:10025C0084000008E2006120E00A26295C140800F2
:10026C00FF3083120313D900FF30DA00FF30DB00BC
:10027C00FF309F01C0309F043809F00070088316CE
:0C028C009F051F179F1783121F14080006
:100298005A208A110A128000840AC80A0319C90A56
:0802A800F003031D4C290800BE
:1002B0008316031386100610061186110612861285
:1002C00083128610061086120612861106110D2062
:1002D0000D200D20861506158614032086100D208E
:1002E0008614032086100D208614032086100D200E
:1002F00006118614032086100D2086140320861014
:10030000861186168614032086100D208612061587
:1003100086140320861006118614032086100D20F3
:1003200086140320861006158614032086100D20DF
:1003300006118614032086108616061686150615E5
:0C0340008614032086100D205C140800B9
:10034C002A2236210E3083169F00051458210C30BA
:10035C00E3001A200130E3001A200130DD000130E7
:10036C00DE002030DF00F6200230DD000230DE003F
:10037C003930DF00F6202930FB009630FC007F304E
:10038C00FD00FD0BC729FC0BC729FB0BC72901304E
:10039C00E3001A20DD018E2070088312C60071085C
:1003AC00C7007008DD007108DE004A30DF00B6209F
:1003BC000130DD000130DE004A30DF00F620023073
:1003CC00DD000230DE002B30DF00F6200630FB00B3
:1003DC001330FC00AD30FD00FD0BF229FC0BF229B3
:0C03EC00FB0BF22900000000D029FB29C7
:1004540020308400283083120313F0000130C800D8
:080464000230C9004C21080020
:10040200423449344C3447344934533441345934F6
:06041200413452340034B5
:100418002034473465346C3465346E3420344434C5
:0A0428006534673465347234003423
:020432000F3485
:100434004D345534483445344E34443449345334BB
:0A0444004C34493447344934003485
:04044E000034003442
:02400E004A2F37
:00000001FF
