:020000002B28AB
:10000800FF00030E8301A2000A08A3008A010B1D4A
:1000180011280B1163308100880923088A00220EF9
:080028008300FF0E7F0E0900AA
:0E0030008312031321088A00200882000800B2
:10003E0018208A110A128000840AA00A0319A10A44
:08004E00F003031D1F28080048
:1000560083160313811201168111011581100114F3
:100066006330831281008B170B138B168316860160
:100076008312860183168801831288018601063061
:10008600FB001330FC00AD30FD00FD0B4828FC0BD7
:100096004828FB0B48280000000001308600063087
:1000A600FB001330FC00AD30FD00FD0B5828FC0BA7
:0E00B6005828FB0B5828000000004128612844
:02400E004A2F37
:00000001FF
