:02000000CA290B
:0E000600213083120313FD00FD0B07280800B4
:100014000F3083120313FC004730FD00FD0B102842
:0A002400FC0B10280000000008008B
:06002E00000000000800C4
:1000340083120313C41B2028861121288615441B10
:100044002528061126280615C41A2A2886102B28C6
:100054008614441A2F280610302806142918342828
:10006400061635280612861617208612C4193C284F
:1000740086113D2886154419412806114228061583
:10008400C418462886104728861444184B2806109E
:100094004C280614291850280616512806128616CC
:1000A40017208612291C58280A20592803200800E2
:1000B40083120313F801F9011030FC00710DF80DDF
:1000C400F90D7408F8027508031C750FF90203187A
:1000D40072287408F80775080318750FF9070310D8
:0A00E400F00DF10DFC0B6028080080
:1000EE0083120313C2010530420203188528420809
:1000FE004107840020308000C20A7A284208410756
:10010E0084008001C20342084107C3000A30F40094
:10011E00F5013F08F0004008F1005A207808F00081
:10012E007908F1003030F007430884007008800031
:10013E000A30F400F5013F08F0004008F1005A20A3
:10014E007008BF007108C00000307106031DB12891
:10015E0000307006031DB428B628C2038A28080092
:0E016E00831203132B088A002A08820008005F
:10017C008312031329103F08C4001A202914080005
:10018C00D828803083120313B600EB28C030B60099
:10019C00EB289430B600EB28D430B600EB28803036
:1001AC00B600EB28831203133608013A0319C7284B
:1001BC003608023A0319CC283608033A0319CF281B
:1001CC003608043A0319D228D5283703F00036082C
:1001DC00F0077008B6007008C4001A202910B90185
:1001EC00390838078400000803190429390838072E
:1001FC0084000008BF00BE20B90AF62829140800A4
:10020C0083120313BB01BC013608BD003708BE00C6
:10021C0080303706F00080307002031D1729003043
:10022C003602031825290130BB000030BC0036080B
:10023C00003CBD003708031C013EBE01BE023D0858
:10024C00BF003E08C0003808C10077200630B90056
:10025C000030BA003A08003C031D36293908003C2E
:10026C000318512939083807F20001303902F0001F
:10027C000030031C013E3A02F1007008380784007C
:10028C000008F00072088400700880000130B90288
:10029C00031CBA03302938088400203080003B0846
:1002AC003C0403196F29B901BA01390838078400D5
:1002BC000008203A031D6629B90A0319BA0A5B29FA
:1002CC000130B902031CBA033908380784002D30F9
:0402DC008000080096
:1002E000B7208A110A128000840AAA0A0319AB0AED
:0802F000F003031D7029080052
:1002F800831603138612061206108610061186113D
:1003080083128612061286110611861006100A201C
:100318000A200A20861406148616172086120A2038
:100328008616172086120A208616172086120A209B
:1003380006108616172086120A208616172086129F
:10034800861086158616172086120A20861106142E
:1003580086161720861206108616172086120A207F
:1003680086161720861206148616172086120A206B
:10037800061086161720861286150615861406148A
:0C0388008616172086120A20291408008F
:10039400483083120313A0006530A1006C30A20022
:1003A4006C30A3006F30A4002130A500A6014630B4
:1003B400A700A80183160714831207108316871455
:1003C400831287107C212708B6002808B7002C3038
:1003D400B80006210B30FB002630FC005D30FD0028
:1003E400FD0BF229FC0BF229FB0BF22900000000A3
:1003F4000130C4001A200B30FB002630FC005D30B5
:10040400FD00FD0B032AFC0B032AFB0B032A00004F
:1004140000000714071C152A0130B6000330B7008A
:100424002C30B800C6200B30FB002630FC005D30B9
:10043400FD00FD0B1B2AFC0B1B2AFB0B1B2A0000D7
:1004440000008714871C272A282AFD290130B600BA
:0C0454000330B7002030B800C6202F2A6B
:02400E004A2F37
:00000001FF
