:020000005E2878
:10000800FF00030E8301A8000A08A7008A017B08E5
:10001800A2007C08A1007D08A0008B1C37280130B5
:100028008806A301A40180302406F0008030700205
:10003800031D20286430230203183628230889006A
:100048000430FB000C30FC003330FD00FD0B2A2887
:10005800FC0B2A28FB0B2A2800000000A30A03191E
:10006800A40A17288B102208FB002108FC0020088E
:10007800FD0027088A00280E8300FF0E7F0E090066
:0E0088008312031326088A0025088200080050
:1000960044208A110A128000840AA50A0319A60AB6
:0800A600F003031D4B280800C4
:0E00AE008316031301130B160B178B17080094
:1000BC0083120313A301A401572006148801831291
:1000CC008801831689018312890123088800043072
:1000DC00FB000C30FC003330FD00FD0B7328FC0BD7
:1000EC007328FB0B73280000000063007B287D281D
:02400E004A2F37
:00000001FF
