:020000004E2888
:10000800FF00030E8301A5000A08A6008A017008F4
:10001800A0000B1D24280B116330810001308606D7
:10002800A10AA20A2108643A031D1D28A101013072
:1000380086062208C83A031D2428A2010230860633
:100048002008F00026088A00250E8300FF0E7F0E88
:0200580009009D
:0E005A008312031324088A0023088200080082
:100068002D208A110A128000840AA30A0319A40AFF
:08007800F003031D3428080009
:10008000831603138112811101158110011463304D
:0C009000831281008B160B178B170800E1
:10009C0083120313A101A201A701A801402083161A
:1000AC000610831206108316861083128610831690
:1000BC00880183128801A701A80180302806F0006E
:1000CC008030033A7002031D6D28E83027020318B4
:1000DC008328270888000B30FB002630FC005D309D
:1000EC00FD00FD0B7728FC0B7728FB0B7728000015
:0C00FC000000A70A0319A80A6328832843
:02400E004A2F37
:00000001FF
