:020000000C2DC5
:0E000600213083120313FD00FD0B07280800B4
:100014000F3083120313FC004730FD00FD0B102842
:0A002400FC0B10280000000008008B
:06002E00000000000800C4
:1000340083160313B11B21288312861223288312EB
:1000440086168316311B2928831206122B28831245
:1000540006168316B11A31288312861133288312A7
:1000640086158316311A3928831206113B28831208
:1000740006155F183F28061440280610861417201A
:1000840086108316B1194928831286124B288312CD
:1000940086168316311951288312061253288312A7
:1000A40006168316B1185928831286115B28831209
:1000B400861583163118612883120611632883126A
:1000C40006155F186728061468280610861417207A
:0E00D40086105F1C6F280A2070280320080089
:1000E200FB14FB1F7B28FF30F300F200F100F0004D
:0800F200FA0DF20CFF300800CA
:0E00FA00F201F101F001F801F30100300800FD
:08010800FA1FF2130030080099
:100110007B15FB1F92280130F300F201F101F00181
:08012000FA0DF20CFF3008009B
:10012800831203135F106F088316B1001A205F143F
:020138000800BD
:10013A0083120313FA017308031D7A147708031D47
:10014A00FA147A080319E928033A0319B4287A1821
:10015A00B128F61FE728E528F21FE528E7287208E4
:10016A008039FA00F21376088039F6137A060319F1
:10017A00C2287A080319E528E728770873020319C1
:10018A00C928031CDD28E128760872020319D02841
:10019A00031CDD28E128750871020319D728031CFE
:1001AA00DD28E128740870020319E9280318E128F8
:1001BA00FA080319E728E528FA080319E528E728C1
:1001CA0003140800031008000314031508000800AC
:1001DA000E3083120313FD00FD0BF1280000080006
:0E01EA008312031361088A0060088200080077
:1001F800831603132F08F2007208F100F20A300880
:10020800F000B00A700884000008F000710884004B
:100218007008800071088400000803191429002957
:060228002F08F0000800A1
:10022E007C184D29FC181E297C196C291729A00150
:10023E007208031D3E297108F2007008F10078085B
:10024E00F000F801A0157208031D3E297108F20096
:10025E007008F100F001A01120167208031D3E294E
:10026E007108F200F101A015720803196029200827
:10027E00F302031D031C64290310F21B4D29F80D14
:10028E00F00DF10DF20DF30B442964297B1B701C4C
:10029E006829F81F6829F00A0319F10A0319F20AEE
:1002AE00031D6829F20CF10CF00CF30A03196C29EA
:1002BE0068290130FC007D206F290230FC00882067
:1002CE006F290430FC0084206F290830FC00712057
:0402DE000000080014
:1002E20083120313FB017308031D77080319C8293E
:1002F20072087606FA007708F3077E30031C852918
:10030200F3020318CB298829F302031CCE297208B1
:10031200F8007108FC007008FD00F817F6170310CA
:10032200F201F101F0011830A0007D1CA22974082D
:10033200F00775080318750FF10776080318760F92
:10034200F207F20CF10CF00CF80CFC0CFD0C031093
:10035200A00B9629F21BB229F80DF00DF10DF20D4A
:10036200F3037B1B701CC429F81FC429F00A03196C
:10037200F10A0319F20A031DC429F20CF10CF00C64
:10038200F30A0319CB29FA1FF2130030D0290130E6
:100392007D20D02902307120D0290430882000002D
:0203A200080051
:1003A40083120313FD01F801700803190034740665
:1003B400FA00FA1BFD09FB01F41FE229F409F40A0F
:1003C400F01FE629F009F00A70087404FA00FA1B19
:1003D4000A2A7408F802F00D700DF80D7408F80775
:1003E400F00D0630FC00700DF80D74087018F8025A
:1003F400701CF807F00DFC0BF529701CF8077B182E
:10040400182AFD1F0034F009F00AF809F80A00342C
:10041400F41F152AF01B122A7008F800F001032AB1
:10042400F001F00A0034F009FB0AEB29F80A740819
:100434007802031D032AF801F00AF01F032AFF348F
:020444000800AE
:1004460083120313ED01EE016208E9006308EA0076
:100456006408EB006508EC006C08FF3A031D3D2AB2
:100466006B08FF3A031D3D2A6A08FF3A031D3D2A21
:100476006908FF3A031D482A66088316AF0045300F
:10048600B000FC200330F000262C01308312E70078
:10049600EB1F582A80306B06F0007008EB00E70A65
:1004A600660884002D308000E60A0030F0006C06F5
:1004B600031D672A70086B06031D672A70086A0603
:1004C600031D672A6908003A031D712A6608831608
:1004D600AF003030B000FC20F001262C83126C08EF
:1004E600FF3A031D802A6B08003A031D802A6A081A
:1004F600003A031D802A6908003A031D8C2A660803
:100506008316AF002130B000FC2083126708F0008C
:10051600262C0030F4000030F5000030F6007F3065
:10052600F7006908F0006A08F1006B08F2006C0831
:10053600F3009D20013003180030F0007008031905
:10054600BF2A6908F0006A08F1006B08F2006C081F
:10055600F3000030F4000030F5002030F600823061
:10056600F70071217008E9007108EA007208EB00D3
:100576007308EC00EE038C2A0030F4000030F5001E
:100586002030F6008230F7006908F0006A08F100B2
:100596006B08F2006C08F3009D200130031C00304C
:1005A600F00070080319F22A6908F0006A08F100E1
:1005B6006B08F2006C08F300CD30F400CC30F50087
:1005C6004C30F6007B30F70071217008E9007108A5
:1005D600EA007208EB007308EC00EE0ABF2AFF304F
:1005E6006905F800FF306A05F9007F306B05FA00EF
:1005F60000306C05FB007808F4007908F5007A08ED
:10060600F6007B08F700F40DF50DF60DF70D7410E6
:1006160000306905F00000306A05F10000306B0516
:10062600F200FF306C05F3007008E9007108EA007B
:100636007208EB007308EC0074086904F000750892
:100646006A04F10076086B04F20077086C04F30084
:100656007008E9007108EA007208EB007308EC0004
:100666007F306C02F0007008E8000130EC00700882
:10067600F4006908F0006A08F1006B08F2006C08E3
:10068600F300740803194E2BF00DF10DF20DF30D66
:100696007010FF3E452B7008E9007108EA007208E9
:1006A600EB007308EC006C08303EF000660884002E
:1006B60070088000E60A80306E06F0008030013A4D
:1006C6007002031C6F2B8030063AF00080306E06F5
:1006D6007002031C6F2B762B660884002E30800078
:1006E600E60A0130ED000630E8006808003A031912
:1006F600D42BEC016908F0006A08F1006B08F200DF
:100706006C08F300F00DF10DF20DF30D7010F00D05
:10071600F10DF20DF30D70106908F0076A08031861
:100726006A0FF1076B0803186B0FF2076C080318C2
:100736006C0FF3077008E9007108EA007208EB0015
:100746007308EC006908F0006A08F1006B08F20013
:100756006C08F300F00DF10DF20DF30D701070083A
:10076600E9007108EA007208EB007308EC006C08F7
:10077600303EF0006608840070088000E60A6D08C6
:10078600003A031DD22BEE036E08003A031DD22B4E
:10079600660884002E308000E60A0130ED00E8038A
:1007A600782BFF30660784000008303A031DDD2BE6
:1007B600E603D42BFF306607840000082E3A031D9B
:1007C600E52BE6036E08003A0319222C660884001E
:1007D60065308000E60A80306E06F0008030003A10
:1007E60070020318FE2B660884002D308000E60A8E
:1007F6006E08003CEE006E08E8008030093AF00012
:1008060080306E0670020318142C0A30F400680853
:10081600F000D2213030F0076608840070088000AE
:10082600E60A0A30F4006808F000D2217808F000E1
:100836003030F0076608840070088000E60A660813
:0808460084008001F0010800AC
:10084E00831203139F01C0309F044909F000700802
:10085E0083169F051F179F1783126208F000F00D75
:10086E007010F00D7010F00D701070089F041F14B2
:10087E00ED201F151F1D452C0000412C1F101E08BA
:10088E00F100F00183161E08F0040030F104080098
:10089E00612C803083120313E200742CC030E2000E
:1008AE00742C9430E200742CD430E200742C80301E
:1008BE00E200742C831203136208013A0319502CC0
:1008CE006208023A0319552C6208033A0319582C90
:1008DE006208043A03195B2C5E2C6303F000620875
:1008EE00F0077008E20070088316B1001A205F103E
:1008FE00E501650864078400000803198E2C65085D
:10090E00640784000008EF009420E50A802C5F1431
:02091E000800CF
:10092000831603138610061006118611061286120E
:1009300083128610061086120612861106110A20EE
:100940000A200A20861506158614172086100A200C
:100950008614172086100A208614172086100A2075
:1009600006118614172086100A2086141720861078
:10097000861186168614172086100A208612061500
:1009800086141720861006118614172086100A2058
:1009900086141720861006158614172086100A2044
:1009A000061186141720861086160616861506155B
:0C09B0008614172086100A205F1408002F
:1009BC00831203137008F8007108F0007208F1003C
:1009CC007308F200F301FB01FC019E30F300FA0105
:1009DC00F21FFC2CF809F009F109F209F80A0319C5
:1009EC00F00A0319F10A0319F20AFA170230FC0093
:0409FC0017210800B7
:100A0000F5208A110A128000840AE00A0319E10A1B
:080A1000F003031D002D080096
:100A1800E225831603138601FF3085009030831288
:100A28009F00823083169F0090240C308316B100FB
:100A38001A2001308316B1001A200130E20001307B
:100A4800E3002530E4004F240230E2000230E300E6
:100A58004E30E4004F242930FB009630FC007F30F4
:100A6800FD00FD0B352DFC0B352DFB0B352D013015
:100A78008316B1001A200130E2002724700883127F
:100A8800DB007108DC00DD01DE015B08F0005C08BA
:100A9800F1005D08F2005E08F300DE240B30F4007C
:100AA8002830F5002030F6007730F7007121700803
:100AB800CA007108CB007208CC007308CD00003062
:100AC800F4000030F5003030F6008230F700712174
:100AD8007008B2007108B3007208B4007308B5005A
:100AE8007008E2007108E3007208E4007308E5008A
:100AF800A030E6002322013083120313E200013004
:100B0800E300A030E4004F240230E2000230E300AA
:100B18003630E4004F240630FB001330FC00AD30C3
:100B2800FD00FD0B952DFC0B952DFB0B952D000065
:060B380000003F2D9E2D80
:100BC400213084003E3083120313F000A430E0008F
:080BD4000530E10000250800D6
:080B480049344E3446340034F8
:100B5000423449344C3447344934533441345934A1
:060B600041345234003460
:040B660030340034F3
:080B6A000034003400340034B3
:100B72002034503469346C3469346E342034563441
:0E0B82006F346C34743461346A346934003476
:080B90004E3461344E34003490
:020B98000F3418
:080B9A00003400340034003483
:100BA2004D345534483445344E3444344934533446
:0A0BB2004C34493447344934003410
:080BBC00003400340034003461
:02400E004A2F37
:00000001FF
